:020000040000FA
:100000000C945D000C9485000C9485000C94850084
:100010000C9485000C9485000C94D2120C948500ED
:100020000C9485000C9485000C9485000C9485003C
:100030000C9485000C94E4040C9485000C948500C9
:100040000C9442040C9485000C94B2040C948C041F
:100050000C9485000C9485000C9485000C9485000C
:100060000C9485000C94850000000008000201003B
:100070000003040700000000000000000000000072
:10008000250028002B0000000000240027002A0083
:10009000040404040404040402020202020203032E
:1000A0000303030301020408102040800102040836
:1000B0001020010204081020E51311241FBECFEF09
:1000C000D8E0DEBFCDBF11E0A0E0B1E0E6E7FEE2A0
:1000D00002C005900D92A036B107D9F722E0A0E644
:1000E000B1E001C01D92A539B207E1F710E0CDE5FE
:1000F000D0E004C02197FE010E942317CC35D10720
:10010000C9F70E94D5120C9439170C94000090E0A6
:10011000FC01EC55FF4F249180579F4FFC018491C7
:10012000882399F090E0880F991FFC01EA57FF4F50
:10013000A591B491FC01E458FF4F859194918FB73C
:10014000F894EC91E22BEC938FBF089590E0FC01C2
:10015000E859FF4F2491FC01EC55FF4F3491FC010D
:10016000E057FF4FE491EE23C9F0222339F023300A
:1001700001F1A8F4213019F1223029F1F0E0EE0F5D
:10018000FF1FE458FF4FA591B4918FB7F894EC91FD
:10019000611126C030953E233C938FBF08952730D0
:1001A000A9F02830C9F0243049F7809180008F7D74
:1001B00003C0809180008F7780938000DFCF84B56B
:1001C0008F7784BDDBCF84B58F7DFBCF8091B0006E
:1001D0008F778093B000D2CF8091B0008F7DF9CF20
:1001E0003E2BDACF0895AF92BF92CF92DF92EF927B
:1001F000FF920F931F93CF93DF936C017B018B01D1
:10020000040F151FEB015E01AE18BF08C017D10720
:1002100059F06991D601ED91FC910190F081E02DAA
:10022000C6010995892B79F7C501DF91CF911F91FF
:100230000F91FF90EF90DF90CF90BF90AF90089517
:10024000FC01538D448D252F30E0842F90E0821BDC
:10025000930B541710F0CF96089501970895FC0161
:10026000918D828D981761F0A28DAE0FBF2FB11DB9
:100270005D968C91928D9F5F9F73928F90E0089511
:100280008FEF9FEF0895FC01918D828D981731F0CB
:10029000828DE80FF11D858D90E008958FEF9FEF1F
:1002A0000895FC01918D228D892F90E0805C9F4FF5
:1002B000821B91098F73992708958AEC91E00E941F
:1002C000510121E0892B09F420E0822F08950E943A
:1002D0005D0181110C940000089580E090E0892B6D
:1002E00011F00C9467010895FC01A48DA80FB92F9B
:1002F000B11DA35ABF4F2C91848D90E001968F734E
:100300009927848FA689B7892C93A089B1898C916C
:10031000837080648C93938D848D981306C00288BB
:10032000F389E02D80818F7D80830895EF92FF9285
:100330000F931F93CF93DF93EC0181E0888F9B8D08
:100340008C8D98131AC0E889F989808185FF15C0C2
:100350009FB7F894EE89FF896083E889F9898081E5
:100360008370806480839FBF81E090E0DF91CF91B4
:100370001F910F91FF90EF900895F62E0B8D10E0D6
:100380000F5F1F4F0F731127E02E8C8D8E110CC045
:100390000FB607FCFACFE889F989808185FFF5CF90
:1003A000CE010E947401F1CFEB8DEC0FFD2FF11DFA
:1003B000E35AFF4FF0829FB7F8940B8FEA89FB89CD
:1003C00080818062CFCFCF93DF93EC01888D88232B
:1003D000B9F0AA89BB89E889F9898C9185FD03C0A8
:1003E000808186FD0DC00FB607FCF7CF8C9185FF8D
:1003F000F2CF808185FFEDCFCE010E947401E9CF5D
:10040000DF91CF910895EF92FF920F931F93CF93B7
:10041000DF9380E480937C0080917A0080648093F5
:100420007A0080917A0086FDFCCFE0907800F09011
:100430007900C0916601D09167010A8D002309F40B
:100440004EC01D8D70E060E0CE010E94F6070150A5
:100450000A8F1F3FB9F58885882321F0CE010896C1
:100460000E945605B701FF0C880B990B0E94DA1504
:100470002AE038E240EA5BE30E948F1620E030E099
:1004800048EC52E40E948F166093620170936301FE
:1004900080936401909365019A8D8B8D9817F8F481
:1004A0008E8D9F5F9A8F8F3FA1F489898823B9F041
:1004B000CE014196DF91CF911F910F91FF90EF9068
:1004C0000C9456058091C901181760F61F5F1D8FA7
:1004D000C9CF9091C901891710F48F5F8E8FDF917A
:1004E000CF911F910F91FF90EF900895FC01019023
:1004F0000020E9F73197AF01481B590BBC018AEC8A
:1005000091E00C94F3008F929F92AF92BF920F9361
:100510001F93CF93DF93CDB7DEB7A1970FB6F894B3
:10052000DEBF0FBECDBF19A2423008F44AE08E01F3
:100530000F5D1F4F842E912CB12CA12CA50194018D
:100540000E940117E62FB901CA01EA30F4F4E05D18
:10055000D801EE938D01232B242B252B79F790E0E6
:1005600080E0109719F0CD010E947602A1960FB697
:10057000F894DEBF0FBECDBFDF91CF911F910F91D9
:10058000BF90AF909F908F900895E95CE1CF8091EC
:100590006601909167010E94F70B813071F5C09060
:1005A0006201D0906301E0906401F0906501809158
:1005B0006601909167010E94CC0A20E030E040EF94
:1005C00051E4C701B6010E948A161816B4F461E01E
:1005D0008DE00E94A60061E089E00E94A6000E94D2
:1005E000050660E086E090E00E9447070E9400094F
:1005F0008111CDCF0E944008CACF60E08DE00E94FB
:10060000A60060E0E9CF80916601909167010E94A9
:10061000F70BC12CD12C7601813071F4C0906201AE
:10062000D0906301E0906401F090650180916601D3
:10063000909167010E94CC0A8BE191E00E947602C2
:10064000A7019601C701B6010E94FC168823D1F0CC
:1006500084E391E00E94760280E491E00E947602B9
:1006600085E491E00E9476020E94050660E08EE338
:1006700090E00E9447070E9400098111C4CF0E94A8
:100680004008C1CF46015701E894B7F82FEF3FEF7C
:100690004FE75FE7C501B4010E94FC1681110DC050
:1006A0002FEF3FEF4FE75FE7C501B4010E94A415AC
:1006B00018161CF488E391E0CDCF2FEF3FEF4FE702
:1006C0005FE4C701B6010E948A1618161CF48CE379
:1006D00091E0C0CF2FEF3FEF4FE75FECC701B601CE
:1006E0000E94A41587FDF3CF20E030E0A901C701E7
:1006F000B6010E94A41587FF09C06DE28AEC91E063
:100700000E949601F7FAF094F7F8F0942DEC3CEC87
:100710004CE45DE3C701B6010E9438154B015C0152
:100720000E94A9156B017C010E94D8159B01AC01A8
:10073000C501B4010E9437154B015C014AE0C701B5
:10074000B6010E9483026EE28AEC91E00E9496015B
:1007500020E030E040E251E4C501B4010E948F1670
:100760000E94A91590E080E04AE00E94830274CFC5
:100770000F931F93CF93DF93E091DA01F091DB01A8
:1007800082E08083E091D601F091D7011082E09160
:10079000D801F091D9018FEC80831092E201E091B1
:1007A000DE01F091DF0186E08083E091DC01F091D1
:1007B000DD01808180618083E091DC01F091DD01C9
:1007C000808188608083E091DC01F091DD0180818F
:1007D00080688083E091DC01F091DD0180818F7D74
:1007E00080838DE00E94870089E00E9487008FE16E
:1007F00090E00E948C11EC01009781F0998388832E
:1008000081E08B8F1C8ECE010E9410081D821C82FD
:10081000198218821E82CE010E94CC0AD0936701F1
:10082000C093660180E1809381001092800084E291
:1008300094EF909387008093860083E180938100FA
:1008400083E092E0909301018093000181E0809326
:100850006F0010E000E022E040E850E068E471E062
:1008600087EC92E00E94AA1121E040E850E06EE49B
:1008700071E083E093E00E94AA11DF91CF911F9174
:100880000F9108951F920F920FB60F9211242F937C
:100890003F938F939F93AF93BF93809192019091D9
:1008A0009301A0919401B09195013091910123E0C1
:1008B000230F2D3758F50196A11DB11D20939101ED
:1008C0008093920190939301A0939401B09395012A
:1008D00080918D0190918E01A0918F01B091900136
:1008E0000196A11DB11D80938D0190938E01A0935F
:1008F0008F01B0939001BF91AF919F918F913F91E4
:100900002F910F900FBE0F901F90189526E8230F80
:100910000296A11DB11DD2CF1F920F920FB60F925A
:1009200011242F933F934F935F936F937F938F93F4
:100930009F93AF93BF93EF93FF938AEC91E00E9454
:100940007401FF91EF91BF91AF919F918F917F9132
:100950006F915F914F913F912F910F900FBE0F902C
:100960001F9018951F920F920FB60F9211242F937C
:100970008F939F93EF93FF93E091DA01F091DB0166
:100980008081E091E001F091E10182FD1BC0908146
:100990008091E3018F5F8F732091E401821741F012
:1009A000E091E301F0E0E653FE4F958F8093E30181
:1009B000FF91EF919F918F912F910F900FBE0F900C
:1009C0001F9018958081F4CF1F920F920FB60F924F
:1009D00011242F933F934F935F936F937F938F9344
:1009E0009F93AF93BF93EF93FF93E0910001F0913A
:1009F00001010995FF91EF91BF91AF919F918F9167
:100A00007F916F915F914F913F912F910F900FBE0A
:100A10000F901F901895E0919801F09199018081B5
:100A2000811107C08FEF9FEF90938C0180938B0112
:100A30000895E0919801F09199010580F681E02DEB
:100A400080819181F1CFFC01DB010FB6F8940F9208
:100A50004091690250916A022D913C9111972F3F6C
:100A6000320711F18181928160916B02708176175A
:100A700049F04817590730F01D921C9281E00F9001
:100A80000FBE0895481B590B42175307A8F7241BA4
:100A9000350B2D933C9380916B028083809169028A
:100AA00090916A029283818380E0E9CFCF93DF93B4
:100AB000DC011596ED91FC910680F781E02DA4896B
:100AC000B5898685978520893189EC013D832C8302
:100AD000C089D1899B838A83CF010C9611962D9171
:100AE0003C9112972817390721F41296DC93CE9384
:100AF0001197158A148A2C9121502C9320916B0107
:100B0000211157C0A285B3858481958126813781C3
:100B1000EC013D832C83C681D7819B838A83CF01DF
:100B2000029611962D913C9112972817390721F4BE
:100B30001296DC93CE931197138612862C91215036
:100B40002C93C689209190022C1710F4C093900228
:100B500029E02C9FE0011124C459DD4F0980DA817E
:100B6000C02DD583C4834C815D8157834683AC817E
:100B7000BD8113969C938E9312979D838C83A68937
:100B8000A29FD0011124A459BD4FB387A2878C9195
:100B90008F5F8C93A0916702B091680296895696F8
:100BA0008C91891730F581E080936A01DF91CF91B4
:100BB0000895A091AD01B091AE01B787A6871496B4
:100BC0002D913C911597318B208B1496CD91DC9112
:100BD00015979B838A8315969C938E9314978CEA22
:100BE00091E0958B848B8091AC018F5F8093AC01F9
:100BF000D1CF80E0DBCF0FB6F8940F9280916902DD
:100C000090916A020F900FBE089580916B018F5FE3
:100C100080936B0108950FB6F8940F92FC01928DAA
:100C20000F900FBE81E0911180E00895EF92FF9246
:100C30000F931F93CF93DF93EC010FB6F8940F92AD
:100C40001E8D7C0181E1E80EF11C01E01116D4F04B
:100C50008FEF8E8F0F900FBE0FB6F8940F921D8DF1
:100C60007E0188E0E80EF11C01E01116B4F08FEF70
:100C70008D8F0F900FBEDF91CF911F910F91FF903D
:100C8000EF9008958989882319F3C7010E945605BA
:100C9000811100936A011150D9CF8885882339F3D7
:100CA000C7010E945605811100936A011150DDCFE2
:100CB000CF93DF93FC01A085B1858281938124814C
:100CC0003581EC013D832C83C481D5819B838A834C
:100CD00011968D919C9112978E179F0721F4129671
:100CE000DC93CE931197118610868C9181508C9352
:100CF000DF91CF9108950F931F93CF93DF938C01D2
:100D0000FB0180819181D80113968F3F9807F1F400
:100D1000E801AF81B88512968D919C9113979383CA
:100D20008283EC01FD83EC83B583A4831396FC934B
:100D3000EE93129711870087F80180818F5F80837F
:100D4000DF91CF911F910F910895D90112962D91A6
:100D50003C911397E9014881598184179507A8F7B9
:100D6000DACFFC0173836283918780874617570728
:100D700090F0421B530B8485958548175907C8F49A
:100D8000BF016E5F7F4F80917101909172010E944F
:100D90007B0680E008954217530718F46217730723
:100DA00040F4BF016E5F7F4F809173019091740199
:100DB000EECF81E00895EF92FF920F931F93CF93B0
:100DC000DF93EC018B017A016C857D85600F711FCB
:100DD0009801A701CE010E94B106811107C0DF91E1
:100DE000CF911F910F91FF90EF9008958C859D8575
:100DF000080F191FE889F989CE010995E5CFEF920F
:100E0000FF920F931F93CF93DF938C017B01E091AF
:100E10007301F09174010580F681E02DC681D781C0
:100E2000CE0102960E9458068A8982FF0FC0A70150
:100E3000B801CE010E94DB06E889F989CE01DF9175
:100E4000CF911F910F91FF90EF9009948E7F8A8B25
:100E5000F3CFE0917301F0917401808181110DC095
:100E6000809171019091720190937401809373014C
:100E7000F0937201E093710108950580F681E02DF1
:100E80006FEF7FEF808191810E94FF06E2CFBF92DA
:100E9000CF92DF92EF92FF920F931F93CF93DF9346
:100EA000EC01B62EC0906902D0906A0200919801C0
:100EB00010919901E0909601F0909701809167025E
:100EC0009091680202960E945806CF3FDC0709F015
:100ED00042C0BB2009F43FC0E0919B01F0919C010E
:100EE000A0916702B09168021596FC93EE93149757
:100EF000A0916702B09168028481958117969C93B6
:100F00008E9316978091670290916802A481B581B3
:100F1000029613969C938E931297809167029091FC
:100F20006802029695838483E0916702F0916802DB
:100F30008AE991E09387828780919A018F5F8093FD
:100F40009A01DF91CF911F910F91FF90EF90DF9069
:100F5000CF90BF900895CC0DDD1DE0916702F09118
:100F60006802D383C28360916702709168026E5FEA
:100F70007F4FCC15DD0560F4C701DF91CF911F9144
:100F80000F91FF90EF90DF90CF90BF900C947B0675
:100F9000C8010E947B0680918B0190918C01C8173B
:100FA000D90778F6D0938C01C0938B01CACFCF9329
:100FB000DF93EB016091670270916802645F7F4F7D
:100FC0000E947B0661E0CE01DF91CF910C94470730
:100FD000FC010396928381832FEF3FEF34832383B9
:100FE000968385839087878310820895FC01CB01C7
:100FF000448D4423A1F050E026813781240F351F12
:1010000037832683648175812617370720F0208176
:10101000318137832683668177810C94291708955F
:10102000CF93DF93EC010FB6F8940F9288819981EA
:101030002B8D4C8DBC01249F600D711D11247D836F
:101040006C831A8E9B838A832150330B429FB0019D
:10105000439F700D1124860F971F9F838E838FEF00
:101060008D8F8E8FCE0108960E94E807CE014196A3
:101070000E94E8070F900FBE81E0DF91CF910895A5
:101080000F920FB6F8940F921F9211242F923F9255
:101090004F925F926F927F928F929F92AF92BF9288
:1010A000CF92DF92EF92FF920F931F932F933F9374
:1010B0004F935F936F937F938F939F93AF93BF9360
:1010C000CF93DF93EF93FF93A0916702B0916802F3
:1010D0000DB60D920EB60D9280916B01882321F012
:1010E00081E080936A0161C010926A01A091670259
:1010F000B0916802E0916702F09168022D913C91F5
:101100008789908D82179307A8F08091670290914C
:1011100068028091670290916802259A2D9A2FEFBC
:1011200087EA91E6215080409040E1F700C000003E
:101130001D9AF5CF2091900289E001C02150422FE5
:1011400050E0849FF001859FF00D1124E459FD4F7C
:101150009081992399F3A181B28112966D917C912E
:1011600072836183289FC001112481599D4F6817A4
:10117000790721F4858196819283818389E0849F18
:10118000F001859FF00D1124E459FD4F0180F2819B
:10119000E02D868197819093680280936702209367
:1011A00090028091670290916802A0916702B091CD
:1011B0006802CD91CDBFDD91DEBFFF91EF91DF9150
:1011C000CF91BF91AF919F918F917F916F915F91DF
:1011D0004F913F912F911F910F91FF90EF90DF90D2
:1011E000CF90BF90AF909F908F907F906F905F90C7
:1011F0004F903F902F901F900F900FBE0F9008952B
:101200008F929F92BF92CF92DF92EF92FF920F93B5
:101210001F93CF93DF930FB6F8940F9280916B01D9
:10122000815080936B0180916B01882379F080E07D
:101230000F900FBEDF91CF911F910F91FF90EF9014
:10124000DF90CF90BF909F908F9008958091C901BB
:10125000882369F3E090B101F090B201F0E0E0E0A2
:1012600039E041E08091AC0181115EC0EF2B11F0BB
:101270000E940B05E0906801F0906901E114F1040F
:1012800009F47DC189E0D82ECC24C3940FEF1FEF61
:1012900080916B01811161C1C0916902D0916A0294
:1012A0004E018FEF881A980A90926A028092690222
:1012B00081149104B9F48091980190919901209141
:1012C0009601309197013093990120939801909362
:1012D00097018093960180916B028F5F80936B02E0
:1012E0000E940B0580918B0190918C01B12C881686
:1012F000990608F026C1E0916702F0916802E6893C
:10130000DE9EF0011124E459FD4F8081823010F0FF
:10131000BB24B39480916A01811103C0BB2009F4FE
:1013200025C1C0926A0122C1D7011696ED91FC91A8
:10133000A489B5896685778580899189EB019D832C
:101340008C8380899189EC017B836A83BF01645F10
:101350007F4F11960D911C9112970617170721F4D4
:1013600012969C938E931197158A148A8C918150B2
:101370008C93A285B3858481958166817781EC0108
:101380007D836C8366817781EB019B838A83CF01A8
:10139000029611960D911C9112970817190721F4C6
:1013A00012967C936E931197138612862C9121507E
:1013B0002C93A689209190022A1710F4A0939002F2
:1013C0003A9FD0011124A459BD4F11960D90BC91A4
:1013D000A02DB583A48314966D917C911597778386
:1013E000668314966D917C911597EB019B838A839C
:1013F00015969C938E9314979689939FD0011124F0
:10140000A459BD4FB387A2878C918F5F8C93A09115
:101410006702B091680256968C91891708F022CF26
:1014200040936A011FCFE0919801F09199010580E6
:10143000F681E02D0680F781E02D82819381881668
:10144000990628F490938C0180938B0154CFC28528
:10145000D3858481958126813781DC0115963C9363
:101460002E93149726813781D90113969C938E93DE
:101470001297CF01029649815A814817590711F4F2
:101480003A83298313861286288121502883A489D0
:10149000B5891097F9F02685378540895189E9018A
:1014A0005D834C8340895189EA013B832A831196ED
:1014B0006D917C9112979F01245F3F4F62177307D4
:1014C00021F412965C934E931197158A148A2C91ED
:1014D00021502C93A689209190022A1710F4A093F2
:1014E0009002DA9ED0011124A459BD4F11960D909F
:1014F000BC91A02DB583A48314962D913C91159792
:101500003783268314962D913C911597E9019B838F
:101510008A8315969C938E93149796899D9DD001EE
:101520001124A459BD4FB387A2878C918F5F8C93F0
:10153000E0916702F09168028689891710F4BB2454
:10154000B394E0919801F0919901808181116BCF62
:1015500010938C0100938B01CECE80916801909105
:10156000690101969093690180936801D1E0ED1AB9
:10157000F10809F08DCE10926901109268018091F6
:101580006A01882309F453CE809167029091680222
:101590000E94400881E04CCEAF92BF92DF92EF9262
:1015A000FF920F931F93CF93DF9300D000D01F9231
:1015B000CDB7DEB78C011D821C8280E0780198E0F7
:1015C000E90EF11C0FB6F8940F92D8015A962C919F
:1015D0005A975B969C915B97291708F0B0C05A9672
:1015E000DC905A975C964C915C9741118CC08D9120
:1015F0009C91892B11F080E00AC0F801E480F5800D
:10160000E114F10431F580E0F80115821482D394DD
:10161000D8015A96DC925A9751969C91992321F0C1
:10162000C80141960E94560581110E9440080F9002
:101630000FBE81E00F900F900F900F900F90DF91F1
:10164000CF911F910F91FF90EF90DF90BF90AF90DF
:101650000895D7019A968C919A9781509A968C9377
:101660009A9756962C91569799969C91291759F2CC
:101670008111C9CF5701B2E0AB0EB11CC5010E9468
:101680005806F70181A5868B482F50E024E030E012
:10169000241B350B3587248790919002981710F4FE
:1016A0008093900289E0849FD001859FB00D112422
:1016B000A459BD4F11960D90BC91A02DF701B58393
:1016C000A48314962D913C91159737832683149605
:1016D000ED91FC911597B382A2821596BC92AE92C1
:1016E0001497D7015696EC915697E89FF001112474
:1016F000E459FD4F1B96FC93EE931A9780818F5F00
:10170000808381E081CF50E070E060E012968D919F
:101710009C910E942917F801848D22813381820FC8
:10172000932F911D938382832481358182179307A0
:1017300008F461CF80819181938382835CCF2C8177
:101740003D81232B21F40F900FBE80E073CF8111D8
:1017500009C080916B0289838091690290916A022D
:101760009B838A830F900FBE0E9405060FB6F894E4
:101770000F92F801858D8F3F09F4158ED8015E9682
:101780008C915E978F3F11F45E961C920F900FBE66
:10179000BE016C5F7F4FCE0101960E94230581112F
:1017A00020C00FB6F8940F92F801928D838D0F90A0
:1017B0000FBE981310C06C817D81C7010E94D707AE
:1017C000C8010E9416060E940009811102C00E94F1
:1017D000400881E0F7CEC8010E9416060E94000969
:1017E000F8CFC8010E9416060E940009AECF7F9272
:1017F0008F929F92AF92BF92CF92DF92EF92FF9221
:101800000F931F93CF93DF9300D000D01F92CDB7DB
:10181000DEB78C018AE090E09D838C83D12C90E030
:10182000580121E1A20EB11C89E0782E24E0822E1D
:10183000912C0FB6F8940F92D8015A968C915A9722
:101840008823C9F181505A968C935A978D919C9117
:10185000892B71F4E0916702F0916802309719F0DA
:1018600082A58F5F82A7D8011596FC93EE931497FB
:10187000F8018085882339F0C80108960E94560532
:1018800081110E9440080F900FBEDD24D3948D2D4E
:101890000F900F900F900F900F90DF91CF911F91AD
:1018A0000F91FF90EF90DF90CF90BF90AF909F90FF
:1018B0008F907F9008952C813D81232B21F40F90F0
:1018C0000FBED12CE4CF911109C080916B028983A6
:1018D0008091690290916A029B838A830F900FBE68
:1018E0000E9405060FB6F8940F92D8015D968C9170
:1018F0005D978F3F11F45D961C92F801868D8F3FA6
:1019000009F4168E0F900FBEBE016C5F7F4FCE01A3
:1019100001960E9423058111AFC0C8010E940B06E9
:10192000882309F4A3C0D8018D919C91892B09F0DB
:1019300078C00FB6F8940F92F801E480F580E114B6
:10194000F10409F491C0D70156968C915697E09115
:101950006702F09168029689891708F07AC01C9690
:101960002D913C911D9737FD0CC0E0916702F091DD
:10197000680296899401291B31091D963C932E9388
:101980001C97879DC001112484599D4FF701228522
:1019900033852817390709F054C06701F2E0CF0EEC
:1019A000D11CC6010E945806E0916702F0916802BE
:1019B000E689D7015696EC93809190028E1710F429
:1019C000E09390027E9EF0011124E459FD4F0180C6
:1019D000F281E02DD7011596FC93EE931497848144
:1019E000958117969C938E931697A481B581139633
:1019F000DC92CE921297D582C482D7015696EC9192
:101A00005697E79DF0011124E459FD4F1B96FC9376
:101A1000EE931A9780818F5F8083DD24D3940F909B
:101A20000FBE6C817D81C5010E94D707C8010E944D
:101A300016060E940009811102C00E94400891E030
:101A4000F8CEE0916702F09168028689F701868BF3
:101A5000E4CFE0916702F0916802DD24D394999677
:101A60009C9186899817D8F2D12CD9CFC8010E94B1
:101A700016060E940009E3CFC8010E9416060E94C4
:101A80000009C8010E940B068823C9F2DD2009F471
:101A9000FECE0FB6F8940F92F8018189882309F4DD
:101AA0007BC00688F789E02D908184E0891BD801EE
:101AB00014960D911C910115110509F400CFF80140
:101AC00091A5981708F4982FD80156968C9156979F
:101AD000981709F4F4CE9A962C919A97213009F030
:101AE000EECE56969C9356971C962D913C911D9741
:101AF00037FD08C024E030E0291B31091D963C93D6
:101B00002E931C97B9E08B9FC001112484599D4FDF
:101B1000F801228533852817390709F0D0CE7801DE
:101B2000F2E0EF0EF11CC7010E945806F801A689E9
:101B3000809190028A1710F4A093900289E08A9F06
:101B4000D0011124A459BD4F11960D90BC91A02D28
:101B5000F801B583A48314962D913C911597378392
:101B600026831496ED91FC911597F382E2821596E7
:101B7000FC92EE921497D8015696EC915697E89FF6
:101B8000F0011124E459FD4F1B96FC93EE931A9734
:101B900080818F5F808393CE80E089CF0F920FB6D4
:101BA000F8940F921F9211242F923F924F925F92BE
:101BB0006F927F928F929F92AF92BF92CF92DF925D
:101BC000EF92FF920F931F932F933F934F935F9347
:101BD0006F937F938F939F93AF93BF93CF93DF9335
:101BE000EF93FF93A0916702B09168020DB60D923A
:101BF0000EB60D9213BE80916B018111F9C08091D8
:101C0000690290916A02019690936A028093690238
:101C1000009781F5209198013091990140919601AA
:101C200050919701509399014093980130939701F7
:101C30002093960120916B022F5F20936B02E0911D
:101C40009801F09199012081211107C02FEF3FEFFA
:101C500030938C0120938B010DC0E0919801F0919D
:101C600099010580F681E02D2081318130938C012E
:101C700020938B0120918B0130918C018217930767
:101C800010F420E0A1C020E039E0D32EE0919801CB
:101C9000F09199013081311107C08FEF9FEF909340
:101CA0008C0180938B0190C0E0919801F091990193
:101CB0000580F681E02D0680F781E02D4281538179
:101CC0008417950728F450938C0140938B017CC0B6
:101CD000A285B3854481558166817781EA017D8340
:101CE0006C8366817781EB015B834A83AF014E5F32
:101CF0005F4F11960D911C9112970417150721F44F
:101D000012967C936E931197138612863C913150F4
:101D10003C93A489B5891097F9F066857785008989
:101D20001189EB011D830C8300891189E8017B83F4
:101D30006A831196ED90FC901297BF01645F7F4F0C
:101D4000E616F70621F412961C930E931197158A46
:101D5000148A3C9131503C93A689309190023A17F5
:101D600010F4A0939002DA9ED0011124A459BD4F23
:101D700011960D90BC91A02DB583A48314966D91FE
:101D80007C9115977783668314966D917C91159756
:101D9000EB015B834A8315965C934E9314974689B7
:101DA0004D9DD0011124A459BD4FB387A2873C910A
:101DB0003F5F3C93E0916702F091680236893417E7
:101DC00008F064CF21E062CFE0916702F0916802F1
:101DD000E689D9E0ED9FF0011124E459FD4F80819F
:101DE000823008F021E080916A0181110EC00AC0A2
:101DF00080916801909169010196909369018093A7
:101E000068016CC0222309F469C080916B018823AA
:101E100021F081E080936A0161C010926A01A09173
:101E20006702B0916802E0916702F09168022D911B
:101E30003C918789908D82179307A8F08091670263
:101E4000909168028091670290916802259A2D9A7C
:101E50002FEF87EA91E6215080409040E1F700C0E3
:101E600000001D9AF5CF2091900289E001C0215019
:101E7000422F50E0849FF001859FF00D1124E4591A
:101E8000FD4F9081992399F3A181B28112966D91B2
:101E90007C9172836183289FC001112481599D4FD9
:101EA0006817790721F4858196819283818389E07F
:101EB000849FF001859FF00D1124E459FD4F0180AE
:101EC000F281E02D8681978190936802809367026A
:101ED000209390028091670290916802A09167021E
:101EE000B0916802CD91CDBFDD91DEBFFF91EF9142
:101EF000DF91CF91BF91AF919F918F917F916F9122
:101F00005F914F913F912F911F910F91FF90EF9013
:101F1000DF90CF90BF90AF909F908F907F906F9009
:101F20005F904F903F902F901F900F900FBE0F909B
:101F30000895CF93DF93009751F0EC010E940506BE
:101F4000CE010E94AE14DF91CF910C940009DF9175
:101F5000CF910895CF93DF93CDB7DEB72A970FB611
:101F6000F894DEBF0FBECDBF85E0B82ECE0101963E
:101F70007C01E0917301F09174011081D12CC12C8E
:101F8000112329F00580F681E02DC080D1800E94C8
:101F900005060E94FB054C0180916D0190916E0138
:101FA0008816990608F06CC00E94290790926E016D
:101FB00080926D010E940009D701EB2D1D92EA95D8
:101FC000E9F70091890110918A011A86198680E04B
:101FD0004801F1E18F0E911C0FB6F8940F92D801D1
:101FE0005A96DC90DD2009F40DC1B701C8010E94AA
:101FF000F607DA94F801D28E8085882339F0C8017B
:1020000008960E94560581110E9440080F900FBE4D
:10201000898187FDD6CF0C811D81D8011A968D91BB
:102020009C91892B21F0C80102960E9458060E94BB
:10203000FB056C0180916D0190916E01C816D90667
:1020400010F40E942907D0926E01C0926D01E981BF
:10205000E150E93008F0B5CF0E2E000CFF0BE95C23
:10206000FF4ED80152968C9152970C942317BA10B8
:10207000BA10FE10E610F810BA10BA10FE10E610F2
:1020800090926E0180926D01112351F08C149D0489
:1020900070F00E940009B401C6010E94FF068CCFB7
:1020A000E0917101F091720161E08081811160E045
:1020B0000091890110918A010FB6F8940F92D8010E
:1020C0005D968C915D978F3F11F45D961C92F8019F
:1020D000868D8F3F09F4168E0F900FBED8015A9649
:1020E0008C915A9781113CC05296ED91FC91A09130
:1020F0006702B09168021F96FC93EE931E97A09121
:102100006702B09168028481958151969C938E9369
:1021100050978091670290916802A481B5810C96D6
:1021200013969C938E931297809167029091680208
:102130000C9695838483E0916702F0916802C80150
:102140004196958B848BF80181898F5F818BC601C5
:1021500088199909662311F08FEF9FEF0E944707B6
:10216000C8010E9416060E940009811125CF0E9415
:10217000400822CF8160F801828B2A813B816485EF
:102180007585620F731FA601C8010E94B1068823DE
:1021900009F417CFD80152968C91529782FF12C042
:1021A0006A817B811C968D919C91680F791FA60195
:1021B000C8010E94DB06D8015096ED91FC91C80140
:1021C0000995FFCE8E7FF801828BF5CF8160529604
:1021D0008C9352976A817B811D967C936E931C979A
:1021E0006C0D7D1D9601A601C8010E94B106E9CEC5
:1021F00081FD04C0C8010E94990FE3CE8E7FF801D3
:10220000828BDFCE29853A85232B19F40F900FBEE0
:10221000B0CE811109C080916B028E8380916902DA
:1022200090916A0298878F830F900FBE0E940506D7
:102230000FB6F8940F92D8015D968C915D978F3F01
:1022400011F45D961C92F801868D8F3F09F4168E6D
:102250000F900FBEBE01675F7F4FCE0106960E94B2
:10226000230581111BC0C8010E940B06882381F041
:1022700069857A85C4010E94D707C8010E941606A5
:102280000E940009811102C00E94400881E0A4CE92
:10229000C8010E9416060E940009F8CFC8010E94DA
:1022A00016060E940009C8010E940B06882371F3DC
:1022B00060CE00E010E080916C0181110CC0809133
:1022C0006C02823010F00E9440080115110599F34C
:1022D0000E946701F0CF0FB6F8940F92E091A80129
:1022E000F091A901C681D781CE0102960E945806BD
:1022F0008091C90181508093C90180916C01815006
:1023000080936C010F900FBE8F89988D0E94990F5A
:10231000CE010E94990FCFCFCF93DF93EC010E94A3
:102320000506CE010E941214EC010E9400092097BC
:1023300069F4259A2D9A2FEF80E792E02150804092
:102340009040E1F700C000001D9AF5CFCE01DF916B
:10235000CF9108957F928F929F92AF92BF92CF922A
:10236000DF92EF92FF920F931F93CF93DF93982EFC
:10237000A92E762E872E7A01B22ECA010E948C11C8
:102380006C01892B09F4EDC080E390E00E948C1170
:10239000EC01892B09F4E2C080E3DE011D928A95ED
:1023A000E9F7D88ECF8AA70165EA70E0C6010E94DE
:1023B0003217B1E0EB1AF108EF89F88DEE0DFF1D31
:1023C000672D782DCE0149969B01205F3F4FDB01A1
:1023D0004D91BD01DC014D93CD01AB01415051093F
:1023E000DA014C91442319F02617370781F718A614
:1023F000BE8AB9A61B861A861D8A1C8AD987C887F9
:1024000084E090E08B1991099D878C87DB8BCA8BC8
:102410009082DF011197AC9211971C92119780E87E
:102420008C9311971C9257971C9211971C92B397FB
:10243000F983E8830115110519F0F801D183C083F0
:102440000FB6F8940F928091C9018F5F8093C901F4
:102450008091670290916802892B09F091C0D09316
:102460006802C09367028091C901813081F58CE6D2
:1024700092E00E94E80785E792E00E94E8078EE775
:1024800092E00E94E80787E892E00E94E8078EEB5E
:1024900091E00E94E80785EB91E00E94E8078CEA52
:1024A00091E00E94E80783EA91E00E94E8078AE948
:1024B00091E00E94E8078EEB91E090939901809360
:1024C000980185EB91E0909397018093960180911C
:1024D000C7018F5F8093C701AE89809190028A17F0
:1024E00010F4A093900229E02A9FD0011124A4594E
:1024F000BD4F11960D90BC91A02DBD83AC83149659
:102500008D919C9115979F838E831496ED91FC91EC
:102510001597CE0102969383828315969C938E9392
:102520001497EE89E29FF0011124E459FD4FFB87D7
:10253000EA8780818F5F80830F900FBE8091C801F2
:10254000882351F0E0916702F091680296898E89A4
:10255000981710F40E94400881E004C0C6010E9450
:10256000990F8FEFDF91CF911F910F91FF90EF9017
:10257000DF90CF90BF90AF909F908F907F90089505
:102580008091C8018111A3CFE0916702F0916802A8
:1025900096898E89891708F49ACFD0936802C093E0
:1025A000670295CF0E94CE0D1895CF93DF93CDB7DC
:1025B000DEB760970FB6F894DEBF0FBECDBF78943C
:1025C00084B5826084BD84B5816084BD85B5826038
:1025D00085BD85B5816085BD80916E0081608093E9
:1025E0006E00109281008091810082608093810052
:1025F0008091810081608093810080918000816062
:10260000809380008091B10084608093B1008091BC
:10261000B00081608093B00080917A0084608093E4
:102620007A0080917A00826080937A0080917A00AB
:10263000816080937A0080917A00806880937A002C
:102640001092C10020910701309108018FEF98E0AE
:10265000821B930B90930401809303010E94B803A3
:10266000A2E5B1E0FE013196BF018D9181938823EF
:1026700021F081E0A236B807C1F70FE611E020E0B3
:1026800040EC50E089E591E10E94AA11882309F409
:1026900090C0813009F08DC00FB6F8940F928091F0
:1026A000890190918A01892B51F58EE791E00E9472
:1026B000E80785E791E00E94E8078EE791E09093B4
:1026C00074018093730185E791E090937201809388
:1026D000710181E590E00E948C118C01009759F006
:1026E0004F96F801918380838AE0838F85E0848F01
:1026F000C8010E94100810938A01009389010F906D
:102700000FBE8091890190918A01892B09F451C0F3
:1027100007E811E023E04CE550E067E571E08AEA64
:102720009FE00E94AA11813009F043C0F8942FEF76
:102730003FEF30938C0120938B018093C80110925E
:102740006A0210926902A89588E190EC0FB6F8949D
:10275000A895809360000FBE90936000A0916702DF
:10276000B0916802CD91CDBFDD91DEBFFF91EF91B9
:10277000DF91CF91BF91AF919F918F917F916F9199
:102780005F914F913F912F911F910F91FF90EF908B
:10279000DF90CF90BF90AF909F908F907F906F9081
:1027A0005F904F903F902F901F900F900FBE0F9013
:1027B0000895809102010E94B80300E010E0011525
:1027C0001105E9F30E946701FACFEAECF1E0138208
:1027D000128288EE93E0A0E0B0E084839583A68324
:1027E000B7838DE091E09183808385EC90E09587BD
:1027F000848784EC90E09787868780EC90E0918BCB
:10280000808B81EC90E0938B828B82EC90E0958BB7
:10281000848B86EC90E0978B868B118E128E138EB4
:10282000148E08950F931F93CF93DF9382309105F9
:1028300010F482E090E0E0919302F091940230E095
:1028400020E0B0E0A0E0309799F42115310509F4BB
:102850004AC0281B390B24303105D8F58A819B8169
:102860006115710589F1FB0193838283FE0111C01B
:10287000408151810281138148175907E0F04817C0
:10288000590799F4109761F012960C9312971396CA
:102890001C933296CF01DF91CF911F910F91089534
:1028A0000093930210939402F4CF2115310551F057
:1028B0004217530738F0A901DB019A01BD01DF017E
:1028C000F801C1CFEF01F9CF909394028093930266
:1028D000CDCFFE01E20FF31F819391932250310976
:1028E00039832883D7CF2091910230919202232BF4
:1028F00041F420910501309106013093920220931A
:10290000910220910301309104012115310541F418
:102910002DB73EB74091070150910801241B350B9C
:10292000E0919102F0919202E217F307A0F42E1BBE
:102930003F0B2817390778F0AC014E5F5F4F241723
:10294000350748F04E0F5F1F50939202409391025B
:10295000819391939FCFF0E0E0E09CCFCF93DF9302
:102960000097E9F0FC01329713821282A091930242
:10297000B0919402ED0130E020E01097A1F42081A5
:102980003181820F931F209191023091920228177A
:10299000390709F061C0F0939202E0939102DF9150
:1029A000CF910895EA01CE17DF07E8F54A815B81F0
:1029B0009E0141155105B1F7E901FB83EA83499175
:1029C0005991C40FD51FEC17FD0761F480819181E7
:1029D0000296840F951FE9019983888382819381F0
:1029E0009B838A83F0E0E0E012968D919C9113978F
:1029F0000097B9F52D913C911197CD010296820F68
:102A0000931F20919102309192022817390739F6CD
:102A1000309751F51092940210929302B093920263
:102A2000A0939102BCCFD383C28340815181840F94
:102A3000951FC817D90761F44E5F5F4F8881998150
:102A4000480F591F518340838A819B8193838283DE
:102A50002115310509F0B0CFF0939402E093930271
:102A60009ECFFD01DC01C0CF13821282D7CF505818
:102A7000BB27AA270E944F150C9450160E9442169D
:102A800038F00E94491620F039F49F3F19F426F4DB
:102A90000C943F160EF4E095E7FB0C943916E92FE1
:102AA0000E94611658F3BA176207730784079507E7
:102AB00020F079F4A6F50C9483160EF4E0950B2E15
:102AC000BA2FA02D0B01B90190010C01CA01A00180
:102AD0001124FF27591B99F0593F50F4503E68F1DB
:102AE0001A16F040A22F232F342F4427585FF3CF1C
:102AF000469537952795A795F0405395C9F77EF4ED
:102B00001F16BA0B620B730B840BBAF09150A1F035
:102B1000FF0FBB1F661F771F881FC2F70EC0BA0FBB
:102B2000621F731F841F48F4879577956795B79543
:102B3000F7959E3F08F0B0CF9395880F08F099273E
:102B4000EE0F9795879508950E94151608F481E079
:102B500008950E94691688F09F5798F0B92F992719
:102B6000B751B0F0E1F0660F771F881F991F1AF078
:102B7000BA95C9F714C0B13091F00E948316B1E044
:102B800008950C948316672F782F8827B85F39F043
:102B9000B93FCCF3869577956795B395D9F73EF411
:102BA00090958095709561957F4F8F4F9F4F0895B9
:102BB000E89409C097FB3EF49095809570956195D7
:102BC0007F4F8F4F9F4F9923A9F0F92F96E9BB278D
:102BD0009395F695879577956795B795F111F8CF09
:102BE000FAF4BB0F11F460FF1BC06F5F7F4F8F4F74
:102BF0009F4F16C0882311F096E911C0772321F06A
:102C00009EE8872F762F05C0662371F096E8862F01
:102C100070E060E02AF09A95660F771F881FDAF758
:102C2000880F9695879597F90895990F0008550F85
:102C3000AA0BE0E8FEEF16161706E807F907C0F042
:102C400012161306E407F50798F0621B730B840B4A
:102C5000950B39F40A2661F0232B242B252B21F424
:102C600008950A2609F4A140A6958FEF811D811DC4
:102C7000089597F99F6780E870E060E008959FEFFE
:102C800080EC089500240A94161617061806090603
:102C9000089500240A9412161306140605060895D2
:102CA000092E0394000C11F4882352F0BB0F40F45A
:102CB000BF2B11F460FF04C06F5F7F4F8F4F9F4F9A
:102CC000089557FD9058440F551F59F05F3F71F01C
:102CD0004795880F97FB991F61F09F3F79F0879583
:102CE0000895121613061406551FF2CF4695F1DF0C
:102CF00008C0161617061806991FF1CF869571059C
:102D0000610508940895E894BB2766277727CB01CF
:102D100097F908950E94151608F48FEF08950E9400
:102D2000A2160C9450160E94421638F00E944916C2
:102D300020F0952311F00C9439160C943F161124B1
:102D40000C9484160E94611670F3959FC1F3950F41
:102D500050E0551F629FF001729FBB27F00DB11D1F
:102D6000639FAA27F00DB11DAA1F649F6627B00DAF
:102D7000A11D661F829F2227B00DA11D621F739F98
:102D8000B00DA11D621F839FA00D611D221F749FA6
:102D90003327A00D611D231F849F600D211D822FED
:102DA000762F6A2F11249F5750409AF0F1F0882314
:102DB0004AF0EE0FFF1FBB1F661F771F881F915041
:102DC0005040A9F79E3F510580F00C9439160C94A1
:102DD00084165F3FE4F3983ED4F386957795679524
:102DE000B795F795E7959F5FC1F7FE2B880F911D6B
:102DF0009695879597F908950E941516880B990B5B
:102E00000895A1E21A2EAA1BBB1BFD010DC0AA1F2B
:102E1000BB1FEE1FFF1FA217B307E407F50720F043
:102E2000A21BB30BE40BF50B661F771F881F991FBE
:102E30001A9469F760957095809590959B01AC0107
:102E4000BD01CF010895EE0FFF1F0590F491E02D15
:102E50000994FB01DC0102C001900D9241505040E9
:102E6000D8F70895DC0101C06D9341505040E0F760
:102E70000895F894FFCFF20003000095028000004F
:102E80000000009601F3002001E30151012F0143EE
:102E90000154656D70C3A9726174757265206163B8
:102EA0007475656C6C65203A20006E616E00696E09
:102EB00066006F76660020C2B043000D0A00416CC8
:102EC00061726D004C6F670049444C4500546D724F
:062ED000205376630000B0
:107E0000112484B714BE81FFF0D085E080938100F7
:107E100082E08093C00088E18093C10086E0809377
:107E2000C20080E18093C4008EE0C9D0259A86E02C
:107E300020E33CEF91E0309385002093840096BBD3
:107E4000B09BFECF1D9AA8958150A9F7CC24DD24C4
:107E500088248394B5E0AB2EA1E19A2EF3E0BF2EE7
:107E6000A2D0813461F49FD0082FAFD0023811F036
:107E7000013811F484E001C083E08DD089C08234E0
:107E800011F484E103C0853419F485E0A6D080C0E4
:107E9000853579F488D0E82EFF2485D0082F10E0AE
:107EA000102F00270E291F29000F111F8ED06801E7
:107EB0006FC0863521F484E090D080E0DECF843638
:107EC00009F040C070D06FD0082F6DD080E0C81688
:107ED00080E7D80618F4F601B7BEE895C0E0D1E017
:107EE00062D089930C17E1F7F0E0CF16F0E7DF06D8
:107EF00018F0F601B7BEE89568D007B600FCFDCFD4
:107F0000A601A0E0B1E02C9130E011968C91119780
:107F100090E0982F8827822B932B1296FA010C0160
:107F200087BEE89511244E5F5F4FF1E0A038BF0790
:107F300051F7F601A7BEE89507B600FCFDCF97BE46
:107F4000E89526C08437B1F42ED02DD0F82E2BD052
:107F50003CD0F601EF2C8F010F5F1F4F84911BD097
:107F6000EA94F801C1F70894C11CD11CFA94CF0C13
:107F7000D11C0EC0853739F428D08EE10CD085E9AC
:107F80000AD08FE07ACF813511F488E018D01DD067
:107F900080E101D065CF982F8091C00085FFFCCF94
:107FA0009093C60008958091C00087FFFCCF809118
:107FB000C00084FD01C0A8958091C6000895E0E648
:107FC000F0E098E1908380830895EDDF803219F02E
:107FD00088E0F5DFFFCF84E1DECF1F93182FE3DFCA
:107FE0001150E9F7F2DF1F91089580E0E8DFEE27F6
:047FF000FF270994CA
:027FFE00040479
:00000001FF
